:100000000C94C61018950000189500001895000073
:10001000189500001895000018950000189500002C
:10002000189500001895000018950000189500001C
:10003000189500001895000018950000189500000C
:1000400018950000189500001895000018950000FC
:10005000189500000C9416041895000018950000DF
:1000600018950000189500000F931F930BEC17E0F4
:1000700001501040E9F7000000001F910F910F930D
:100080001F930CEC17E001501040E9F7000000004E
:1000900000001F910F910150104089F70000089552
:1000A000229A259A239A01E00DBD01E50CBD2A9AFA
:1000B0002098289A219A2998089529982A9800E04A
:1000C0000EBD0DB507FFFDCFAF93BF9301E00093C9
:1000D0004201A2E2B1E00FEF0EBD0DB507FFFDCF6B
:1000E0000EB50D930091420101500093420199F722
:1000F000BF91AF912A9A00912201009306020091CC
:1001000006020260009306022A9800E20EBD0DB5B9
:1001100007FFFDCF009106020EBD0DB507FFFDCF15
:100120002A9A01E010E0A0DF089529982A9800E0BB
:100130000EBD0DB507FFFDCFAF93BF9301E0009358
:100140004201A2E2B1E00FEF0EBD0DB507FFFDCFFA
:100150000EB50D930091420101500093420199F7B1
:10016000BF91AF912A9A009122010093060200915B
:1001700006020D7F009306022A9800E20EBD0DB51F
:1001800007FFFDCF009106020EBD0DB507FFFDCFA5
:100190002A9A089529982A9807E00EBD0DB507FF01
:1001A000FDCFAF93BF9301E000934201A2E2B1E023
:1001B0000FEF0EBD0DB507FFFDCF0EB50D930091EE
:1001C000420101500093420199F7BF91AF912A9AE1
:1001D0000091220100930702009122010077009311
:1001E00022012A9807E20EBD0DB507FFFDCF009151
:1001F00022010EBD0DB507FFFDCF2A9A089529985B
:100200000895299809E010E001501040E9F7000036
:1002100000000000299A0DE110E001501040E9F7BC
:1002200000000000000029980BE211E0015010408E
:10023000E9F70000000000000895299A0BE211E0A0
:1002400001501040E9F700000000000008952998CF
:100250006CDF2A9801E20EBD0DB507FFFDCF01E06E
:100260000EBD0DB507FFFDCF2A9A2A9802E20EBDFA
:100270000DB507FFFDCF01E00EBD0DB507FFFDCFAA
:100280002A9A2A9803E20EBD0DB507FFFDCF01E0C3
:100290000EBD0DB507FFFDCF2A9A2A9804E20EBDC8
:1002A0000DB507FFFDCF03E00EBD0DB507FFFDCF78
:1002B0002A9A2A9805E20EBD0DB507FFFDCF04E688
:1002C0000EBD0DB507FFFDCF2A9A2A9806E20EBD96
:1002D0000DB507FFFDCF06E00EBD0DB507FFFDCF45
:1002E0002A9A2A9800E20EBD0DB507FFFDCF08E05F
:1002F0000EBD0DB507FFFDCF2A9A09E40093020158
:100300000FE40093030103E5009304012A980AE235
:100310000EBD0DB507FFFDCFAF93BF9303E0009374
:100320004201A2E0B1E00D910EBD0DB507FFFDCF7A
:1003300000914201015000934201A9F7BF91AF9192
:100340002A9A09E4009302010FE40093030103E5F4
:10035000009304012A9800E30EBD0DB507FFFDCF01
:10036000AF93BF9303E000934201A2E0B1E00D918F
:100370000EBD0DB507FFFDCF009142010150009366
:100380004201A9F7BF91AF912A9A2A9801E30EBDC5
:100390000DB507FFFDCFAF93BF9304E0009342017B
:1003A000A2E0B1E00D910EBD0DB507FFFDCF0091AC
:1003B0004201015000934201A9F7BF91AF912A9ADF
:1003C0002A9802E30EBD0DB507FFFDCFAF93BF9393
:1003D00004E000934201A2E0B1E00D910EBD0DB525
:1003E00007FFFDCF00914201015000934201A9F7A0
:1003F000BF91AF912A9A2A980CE30EBD0DB507FF65
:10040000FDCF03E00EBD0DB507FFFDCF2A9A2A9858
:100410000DE30EBD0DB507FFFDCF06E00EBD0DB51A
:1004200007FFFDCF2A9AB6DE2A9802EE0EBD0DB563
:1004300007FFFDCF2A9A2A9801EE0EBD0DB507FFE2
:10044000FDCF2A9A0895299804E60093050200E05A
:1004500000930C0200930D0200930E022A9800E212
:100460000EBD0DB507FFFDCF01E00EBD0DB507FFB9
:10047000FDCF2A9A22DE2A9805E20EBD0DB507FFB0
:10048000FDCF009105020EBD0DB507FFFDCF2A9AE5
:10049000D4DE07E512E001501040E9F7000000004B
:1004A00000002A9809E00EBD0DB507FFFDCFAF9300
:1004B000BF9301E000934201A2E2B1E00FEF0EBD55
:1004C0000DB507FFFDCF0EB50D9300914201015010
:1004D0000093420199F7BF91AF912A9A00912201AE
:1004E000009309023DD1009105020D3720F21DDE77
:1004F00064D10091050212E011BD10E012BD00BDF3
:10050000F894FA9AF99A7894F999FECF089529986F
:100510000CDE2A9801E20EBD0DB507FFFDCF0FE3FB
:100520000EBD0DB507FFFDCF2A9A2A9802E20EBD37
:100530000DB507FFFDCF0FE30EBD0DB507FFFDCFD6
:100540002A9A2A9803E20EBD0DB507FFFDCF01E000
:100550000EBD0DB507FFFDCF2A9A2A9804E20EBD05
:100560000DB507FFFDCF03E00EBD0DB507FFFDCFB5
:100570002A9A2A9805E20EBD0DB507FFFDCF12E0BD
:1005800011BD10E012BDF89A00B50EBD0DB507FF04
:10059000FDCF2A9A2A9806E20EBD0DB507FFFDCFC2
:1005A00006E00EBD0DB507FFFDCF2A9A2A9801E39C
:1005B0000EBD0DB507FFFDCF01E00EBD0DB507FF68
:1005C000FDCF2A9A2A9802E30EBD0DB507FFFDCF95
:1005D00001E00EBD0DB507FFFDCF2A9A2A9803E36F
:1005E0000EBD0DB507FFFDCF01E00EBD0DB507FF38
:1005F000FDCF2A9A2A9804E30EBD0DB507FFFDCF63
:1006000001E00EBD0DB507FFFDCF2A9A2A9805E33C
:100610000EBD0DB507FFFDCF01E00EBD0DB507FF07
:10062000FDCF2A9A2A9806E30EBD0DB507FFFDCF30
:1006300001E00EBD0DB507FFFDCF2A9A2A980CE305
:100640000EBD0DB507FFFDCF0FE30EBD0DB507FFC6
:10065000FDCF2A9A2A980DE30EBD0DB507FFFDCFF9
:1006600006E00EBD0DB507FFFDCF2A9A2A9800E2DD
:100670000EBD0DB507FFFDCF09E00EBD0DB507FF9F
:10068000FDCF2A9A01E30093020111E011BD10E0B1
:1006900012BDF89A00B50093030110E011BD10E0FF
:1006A00012BDF89A00B5009304012A980BE20EBD22
:1006B0000DB507FFFDCFAF93BF9303E00093420159
:1006C000A2E0B1E00D910EBD0DB507FFFDCF009189
:1006D0004201015000934201A9F7BF91AF912A9ABC
:1006E0002A980CE20EBD0DB507FFFDCF02E30EBD4B
:1006F0000DB507FFFDCF2A9A2A980DE20EBD0DB564
:1007000007FFFDCF03E30EBD0DB507FFFDCF2A9A0E
:100710002A980EE20EBD0DB507FFFDCF04E30EBD16
:100720000DB507FFFDCF2A9A2A980FE20EBD0DB531
:1007300007FFFDCF05E30EBD0DB507FFFDCF2A9ADC
:1007400029DD2A9802EE0EBD0DB507FFFDCF2A9ACE
:100750002A9801EE0EBD0DB507FFFDCF2A9A089528
:100760000091090200FF23C000910D0210910E02BA
:10077000011798F000910D0200930E0200910502FE
:1007800000930C0200910C0210910D02011B0093CA
:100790000C0200910D0200930E0200E000930D0286
:1007A0002EDD009105020395009305020895009146
:1007B0000D02039500930D02F3CF00910D021091ED
:1007C0000E02011778F000910D0200930E020091C5
:1007D000050200930C0200910C0210910D02011B06
:1007E00000930C0210910E02169500910C02010F5D
:1007F00000930C0200910C020093050208950FE093
:100800000093190202E000931A0200E000931B0219
:1008100000937B000EE400937C000EE900937A00C5
:1008200000917A00006400937A0008950F931F935B
:100830000FB70F93AF93BF9300911B0203950093E3
:100840001B02A0911902B0911A0200917800009346
:100850001702009179000093180200911702000F0F
:100860000093170200911802001F009318020091D4
:100870001702000F0093170200911802001F009347
:100880001802009117020D93009118020D93A09386
:100890001902B0931A0200911B02043008F478C1C7
:1008A000AFE0B2E00D91009317020D910093180292
:1008B000009117021D91010F009317020091180279
:1008C0001D91011F00931802009117021D91010F45
:1008D00000931702009118021D91011F0093180246
:1008E000009117021D91010F009317020091180249
:1008F0001D91011F009318020091180206950093A4
:100900001802009117020795009317020091180230
:10091000069500931802009117020795009317029D
:100920002F9304ED009322020FEA0093230200911B
:10093000170200932402009118020093250200E0A0
:100940000093200200932102889420E1009122026A
:10095000001F0093220200912302001F0093230234
:1009600000912002001F0093200200912102001F2D
:10097000009321020091200210912402011B009398
:1009800020020091210210912502010B0093210207
:1009900080F40091200210912402010F00932002A4
:1009A0000091210210912502011F009321028894D9
:1009B00001C0089400912202001F009322020091BE
:1009C0002302001F009323022A9551F60091220270
:1009D00000932602009123020093270200E0009377
:1009E0002802009329022F910091260200931C02F5
:1009F0000091270200931D0200911C020093220225
:100A000000911D020093230204E60093240200E0FB
:100A100000932502009326020093270200932802E8
:100A20000093290200E100932A0200912602000FA0
:100A30000093260200912702001F009327020091D5
:100A40002802001F0093280200912902001F009332
:100A5000290200912402000F009324020091250234
:100A6000001F00932502C8F4009126021091220273
:100A7000010F009326020091270210912302011F0B
:100A80000093270210E000912802011F0093280222
:100A900000912902011F0093290200912A020150AE
:100AA00000932A0211F62F9300912602009322024E
:100AB000009127020093230200E20093240200E049
:100AC000009325020093200200932102889420E1E4
:100AD00000912202001F0093220200912302001FB6
:100AE0000093230200912002001F00932002009136
:100AF0002102001F00932102009120021091240284
:100B0000011B009320020091210210912502010B8C
:100B10000093210280F40091200210912402010F21
:100B2000009320020091210210912502011F0093E1
:100B30002102889401C0089400912202001F0093B2
:100B4000220200912302001F009323022A9551F6EE
:100B500000912202009326020091230200932702B3
:100B600000E000932802009329022F9100912602B1
:100B700000931E0200E000931B0200911F0201601F
:100B800000931F0200917A000F7B00937A0005C04A
:100B900000917A00006400937A00BF91AF910F91A9
:100BA0000FBF1F910F911895CED508E70093BB009A
:100BB000BCD500E00093BB00B8D500E20093BB00B9
:100BC000B4D5FBD4C0D508E70093BB00AED500E098
:100BD0000093BB00AAD502E00093BB00A6D5EDD4DC
:100BE00000913002013071F4AED508E70093BB00EC
:100BF0009CD500E00093BB0098D500EB0093BB00B0
:100C000094D5DBD400913002023071F49CD508E712
:100C10000093BB008AD500E00093BB0086D501EBB2
:100C20000093BB0082D5C9D400913002033071F427
:100C30008AD508E70093BB0078D500E00093BB009D
:100C400074D502EB0093BB0070D5B7D4009130028D
:100C5000043071F478D508E70093BB0066D500E056
:100C60000093BB0062D503EB0093BB005ED5A5D417
:100C700000913002053071F466D508E70093BB009F
:100C800054D500E00093BB0050D504EB0093BB00AB
:100C90004CD593D400913002063071F454D508E756
:100CA0000093BB0042D500E00093BB003ED505EBAE
:100CB0000093BB003AD581D400913002073071F423
:100CC00042D508E70093BB0030D500E00093BB009D
:100CD0002CD506EB0093BB0028D56FD400913002D1
:100CE000083071F430D508E70093BB001ED500E052
:100CF0000093BB001AD507EB0093BB0016D55DD45B
:100D00000F921F9200902F0210E0011611F011E0D7
:100D1000011A10903E02019C0F921FE001220092E6
:100D200040020F9002940122009241020091410280
:100D3000005F0093410207D508E70093BB00F5D49C
:100D400000E00093BB00F1D4009140020093BB008F
:100D5000ECD433D4F8D408E70093BB00E6D400E029
:100D60000093BB00E2D4009141020093BB00DDD4AC
:100D700024D41F900F9008953D900091300200936D
:100D8000300200912F0200932F020E94B10B0091BC
:100D90002F020E5F00932F0200912D02015000934D
:100DA0002D0251F70895CFD408E70093BB00BDD4BE
:100DB00000E00093BB00B9D400E00093BB00B5D4C1
:100DC000FCD3C1D408E70093BB00AFD400E000938C
:100DD000BB00ABD40CE00093BB00A7D4EED30895C6
:100DE000B2D408E70093BB00A0D400E00093BB009E
:100DF0009CD40DE30093BB0098D4DFD3A4D408E7C0
:100E00000093BB0092D400E00093BB008ED408E4B2
:100E10000093BB008AD4D1D3089595D408E70093FA
:100E2000BB0083D400E00093BB007FD400E00093BC
:100E3000BB007BD4C2D387D408E70093BB0075D432
:100E400000E00093BB0071D401E00093BB006DD4BF
:100E5000B4D3089578D408E70093BB0066D400E0CB
:100E60000093BB0062D402E00093BB005ED4A5D324
:100E70006AD408E70093BB0058D400E00093BB009D
:100E800054D403E00093BB0050D497D308955BD4AF
:100E900008E70093BB0049D400E00093BB0045D4B1
:100EA00009E40093BB0041D488D34DD408E70093F4
:100EB000BB003BD400E00093BB0037D404E50093B3
:100EC000BB0033D47AD308953ED408E70093BB0027
:100ED0002CD400E00093BB0028D40DE00093BB00AD
:100EE00024D46BD330D408E70093BB001ED400E0B9
:100EF0000093BB001AD408E10093BB0016D45DD365
:100F0000089521D408E70093BB000FD400E00093BC
:100F1000BB000BD409E10093BB0007D44ED313D41C
:100F200008E70093BB0001D400E00093BB00FDD3B1
:100F300004E20093BB00F9D340D3089504D408E73A
:100F40000093BB00F2D300E00093BB00EED305E5B5
:100F50000093BB00EAD331D3F6D308E70093BB007C
:100F6000E4D300E00093BB00E0D300E60093BB00B5
:100F7000DCD323D30895E7D308E70093BB00D5D390
:100F800000E00093BB00D1D304E00093BB00CDD3BD
:100F900014D3D9D308E70093BB00C7D300E0009374
:100FA000BB00C3D305E00093BB00BFD306D30895B5
:100FB000CAD308E70093BB00B8D300E00093BB009E
:100FC000B4D306E00093BB00B0D3F7D2BCD308E79C
:100FD0000093BB00AAD300E00093BB00A6D307E0B8
:100FE0000093BB00A2D3E9D20895ADD308E70093E4
:100FF000BB009BD300E00093BB0097D301E60093B6
:10100000BB0093D3DAD29FD308E70093BB008DD304
:1010100000E00093BB0089D30CE60093BB0085D3AE
:10102000CCD2089590D308E70093BB007ED300E0B4
:101030000093BB007AD305E20093BB0076D3BDD208
:1010400082D308E70093BB0070D300E00093BB009D
:101050006CD300E30093BB0068D3AFD2089573D381
:1010600008E70093BB0061D300E00093BB005DD3B1
:1010700001E30093BB0059D3A0D265D308E70093E6
:10108000BB0053D300E00093BB004FD30CE30093AD
:10109000BB004BD392D2089556D308E70093BB0010
:1010A00044D300E00093BB0040D30DE60093BB00A7
:1010B0003CD383D248D308E70093BB0036D300E08B
:1010C0000093BB0032D308E70093BB002ED375D248
:1010D000089539D308E70093BB0027D300E00093BD
:1010E000BB0023D300E20093BB001FD366D22BD3F7
:1010F00008E70093BB0019D300E00093BB0015D3B1
:1011000001E00093BB0011D358D21DD308E7009330
:10111000BB000BD300E00093BB0007D301E20093B8
:10112000BB0003D34AD200912F02013009F43BDE09
:1011300000912F02023009F4C7DE00912F02033024
:1011400009F4DFDE00912F02043009F46BDF009117
:101150002F02053009F483DF00912F02063009F4D5
:101160003FDE00912F02073009F491DE00912F023B
:10117000083009F4E3DE00912F02093009F435DF6D
:1011800000912F020A3009F487DFDDD208E70093CF
:10119000BB00CBD200E00093BB00C7D202E20093B9
:1011A000BB00C3D20AD200913002013009F435DE0F
:1011B00000913002023009F44DDE0091300203301C
:1011C00009F4D9DE00913002043009F4F1DE08950B
:1011D000BAD208E70093BB00A8D200E00093BB009E
:1011E000A4D20EEA0093BB00A0D2E7D1ACD208E7AC
:1011F0000093BB009AD200E00093BB0096D205EDAD
:101200000093BB0092D2D9D19ED208E70093BB00D5
:101210008CD200E00093BB0088D200EF0093BB00AB
:1012200084D2CBD190D208E70093BB007ED200E0FD
:101230000093BB007AD208EA0093BB0076D2BDD1FE
:1012400082D208E70093BB0070D200E00093BB009D
:101250006CD20FE30093BB0068D2AFD174D208E721
:101260000093BB0062D200E00093BB005ED203EDAE
:101270000093BB005AD2A1D166D208E70093BB000D
:1012800054D200E00093BB0050D200E00093BB00BA
:101290004CD293D158D208E70093BB0046D200E06D
:1012A0000093BB0042D200E40093BB003ED285D144
:1012B0004AD208E70093BB0038D200E00093BB009D
:1012C00034D20DE80093BB0030D277D13CD208E78E
:1012D0000093BB002AD200E00093BB0026D204E1B9
:1012E0000093BB0022D269D12ED208E70093BB0045
:1012F0001CD200E00093BB0018D200E20093BB00B8
:1013000014D25BD120D208E70093BB000ED200E0DC
:101310000093BB000AD202E00093BB0006D24DD17D
:1013200012D208E70093BB0000D200E00093BB009C
:10133000FCD101EA0093BB00F8D13FD104D208E709
:101340000093BB00F2D100E00093BB00EED108ECAB
:101350000093BB00EAD131D1F6D108E70093BB007E
:10136000E4D100E00093BB00E0D10AED0093BB00A4
:10137000DCD123D1E8D108E70093BB00D6D100E04F
:101380000093BB00D2D102E10093BB00CED115D1B6
:10139000DAD108E70093BB00C8D100E00093BB009E
:1013A000C4D101E80093BB00C0D107D1CCD108E77C
:1013B0000093BB00BAD100E00093BB00B6D10FECA4
:1013C0000093BB00B2D1F9D0BED108E70093BB00B7
:1013D000ACD100E00093BB00A8D109ED0093BB00A5
:1013E000A4D1EBD0B0D108E70093BB009ED100E0C0
:1013F0000093BB009AD101EF0093BB0096D1DDD0E2
:10140000A2D108E70093BB0090D100E00093BB009D
:101410008CD10BED0093BB0088D1CFD094D108E7DD
:101420000093BB0082D100E00093BB007ED100E3BB
:101430000093BB007AD1C1D086D108E70093BB00EE
:1014400074D100E00093BB0070D104EA0093BB00AC
:101450006CD1B3D078D108E70093BB0066D100E02F
:101460000093BB0062D106EA0093BB005ED1A5D019
:101470006AD108E70093BB0058D100E00093BB009D
:1014800054D10FEA0093BB0050D197D001E00093F4
:101490002F0200E00093300201D008950091300245
:1014A000003089F508E00093300206E000933E0228
:1014B0000E94D40507D00091300201500093300201
:1014C000A1F7089508E000932C0200E100932B029D
:1014D0003AD108E70093BB0028D100E40093BB0099
:1014E00024D100E00093BB0020D167D000912B02F3
:1014F000015000932B0261F700912C0201500093E0
:101500002C0219F7089506E000933E020E94D405CC
:10151000D9DFD7CF06E000933E020E94D4050F9199
:1015200000933D020F9100933C020F9100933B0208
:101530000F9100933A0200913C020F9300913D02FB
:101540000F9300913C02025000933C0200913D0237
:10155000004000933D0200913C02000F00933C02CA
:1015600000913D02001F00933D0200913A02000FDE
:1015700000933A0200913B02001F00933B02EF935D
:10158000FF93E0913A02F0913B02059100933402FF
:1015900000E000933502009134020F3F00913502C4
:1015A000004009F0A6D410913C02E11710913D02D1
:1015B000F10758F3FF91EF91089500E00093B9000F
:1015C0000CE00093B80004E90093BC0000000000A8
:1015D00000000000089506E000933E020E94D4053A
:1015E00088D4089506E000933E020E94D40508E0E6
:1015F00000932D0200913302000F0093330208F490
:1016000099C100E10093340200E00093350271D4E7
:1016100000912D02015000932D0261F70895009171
:101620002D02013031F401E00093380200E0009314
:10163000390200912D02023031F40AE000933802A1
:1016400000E00093390200912D02033031F404E6EA
:101650000093380200E00093390200912D0204301B
:1016600031F408EE0093380203E000933902009150
:101670002D02053031F400E10093380207E20093B7
:10168000390200E000932E020091310210913802DD
:10169000011700913202109139020107A0F0009168
:1016A000310210913802011B009331020091320285
:1016B00010913902010B0093320200912E02039522
:1016C00000932E02E1DF00912E020093340200E02D
:1016D000009335020895FDDCA2DF92D000912F0225
:1016E0000F5F00932F0200912D02015000932D02F5
:1016F00091F70895EEDC84D0089506E000933E0251
:101700000E94D4058CDF00913402005F0093340204
:10171000009135020F4F00933502EBD300912D025B
:10172000015000932D0271F7089500E00093B90075
:101730000CE00093B80004E80093BC000091BC00EA
:1017400007FFFCCF089500E00093B9000CE0009380
:10175000B80004EA0093BC000091BC0007FFFCCF76
:10176000089506E000933E020E94D4053F92329411
:101770001FE031223092340200E0009335020091E4
:1017800034020A3000913502004050F000913402DA
:10179000095F00933402009135020F4F0093350228
:1017A00000913402005F00933402009135020F4F24
:1017B000009335029ED33F901FE0312230923402D5
:1017C00000E000933502009134020A3000913502A6
:1017D000004050F000913402095F00933402009100
:1017E00035020F4F0093350200913402005F0093E1
:1017F0003402009135020F4F009335027AD30895D9
:10180000EF93FF9304E100932B02EAEDFDE10091D9
:101810003402000F0093340200913502001F009340
:10182000350200913402000F00933402009135021A
:10183000001F00933502009134020093360200919C
:1018400035020093370200913402000F00933402F6
:1018500000913502001F0093350200913402000F01
:101860000093340200913502001F0093350200916D
:10187000340210913602010F0093340200913502B8
:1018800010913702011F0093350210913402E10FCD
:1018900010913502F11F57DF08E70093BB0045DFC9
:1018A00000E40093BB0041DF00E00093BB003DDF9C
:1018B00084DE49DF08E70093BB0037DF00E40093D4
:1018C000BB0033DF00E00093BB002FDF76DE3BDFA1
:1018D00008E70093BB0029DF00E40093BB0025DF8D
:1018E00005910093BB0021DF68DE00912B020150BF
:1018F00000932B0261F727DF08E70093BB0015DF99
:1019000000E40093BB0011DF00E00093BB000DDF9B
:1019100054DE19DF08E70093BB0007DF00E4009303
:10192000BB0003DF00E00093BB00FFDE46DEFF915B
:10193000EF91089501E10093340200E00093350235
:1019400066CE000000000000005F000000070007F6
:1019500000147F147F14242A7F2A12231308646240
:1019600036495522500005030000001C22410000AA
:1019700041221C00082A1C2A0808083E08080050BA
:101980003000000808080808000060600020100807
:1019900004023E5149453E00427F400042615149A8
:1019A000462141454B311814127F102745454539D2
:1019B0003C4A49493001710905033649494936060F
:1019C0004949291E0036360000005636000000083E
:1019D0001422411414141414412214080002015159
:1019E0000906324979413E7E1111117E7F494949EC
:1019F000363E414141227F4141221C7F49494941B4
:101A00007F090901013E414151327F0808087F00EA
:101A1000417F41002040413F017F081422417F4027
:101A20004040407F0204027F7F0408107F3E414116
:101A3000413E7F090909063E4151215E7F0919296E
:101A400046464949493101017F01013F4040403F3D
:101A50001F2040201F7F2018207F63140814630379
:101A600004780403615149454300007F4141020469
:101A700008102041417F0000040201020440404060
:101A80004040000102040020545454787F484444EC
:101A9000383844444420384444487F385454541817
:101AA000087E090102081454543C7F08040478009D
:101AB000447D40002040443D00007F102844004108
:101AC0007F40007C041804787C080404783844447F
:101AD00044387C14141408081414187C7C0804047A
:101AE000084854545420043F4440203C4040207C4B
:101AF0001C2040201C3C4030403C44281028440C12
:101B00005050503C4464544C44000836410000009E
:101B1000FF000000413608000201020402081C2AEE
:101B200008087E1111117E7F494949337F4949498F
:101B3000367F01010103E0514F41FF7F4949494987
:101B400077087F087749494949367F1008047F7C28
:101B50002112097C7F0814224120413F017F7F022E
:101B60000C027F7F0808087F3E4141413E7F010112
:101B7000017F7F090909063E4141412201017F01A0
:101B800001274848483F1C227F221C631408146325
:101B90007F404040FF070808087F7F407F407F7FED
:101BA000407F40FF017F4848307F4830007F7F48BA
:101BB000483000224149493E7F083E413E462919AE
:101BC000097F20545454783C4A4A49317C54542863
:101BD000007C0404040CE0544C44FC385454540875
:101BE0006C107C106C44445454287C2010087C7881
:101BF000422412787C1028440020443C047C7C0859
:101C000010087C7C1010107C38444444387C040458
:101C1000047C7C14141408384444444404047C04B4
:101C2000040C5050503C18247E241844281028449A
:101C30007C404040FC0C1010107C7C407C407C7C44
:101C4000407C40FC047C5050207C5020007C7C5028
:101C500050200028445454387C10384438085434F8
:101C6000147C05E000933E020E94D4050CD0009144
:101C70002F02039500932F0200912D020150009333
:101C80002D0279F70895EF93FF930D91009334029D
:101C900000E000933502009135020695009335026D
:101CA00000913402079500933402009135020695A5
:101CB000009335020091340207950093340200919D
:101CC0003502069500933502009134020795009382
:101CD000340204E000932B0200913402000F0093C1
:101CE000340200913502001F009335020091340246
:101CF000000F0093340200913502001F009335025B
:101D0000EAE5FDE110913402E10F10913502F11F77
:101D10001ADD08E70093BB0008DD00E40093BB0078
:101D200004DD05910093BB0000DD47DC00912B0230
:101D3000015000932B0261F706DD08E70093BB001A
:101D4000F4DC00E40093BB00F0DC00E00093BB0097
:101D5000ECDC33DCFF91EF9108950040000000407F
:101D600040004040400040404040406040404060B3
:101D70006040606060406060606060706060607083
:101D80007060707070607070707070787070707863
:101D900078707878787078787878787C7878787CCB
:101DA0007C787C7C7C787C7C7C7C7C7E7C7C7C7E77
:101DB0007E7C7E7E7E7C7E7E7E7E7E7F7E7E7E7F45
:101DC0007F7E7F7F7F7E7F7F7F7F7F7F7F7F7F7F25
:101DD0007F7F7F7F7F7F7F7F7F7FF80FFC1F0636AF
:101DE00006338631C63066303630FC1FF80F0000EF
:101DF0000000000018301830FE3FFE3F0030003079
:101E0000000018301C38063C063E06378633C631C3
:101E1000E6307C303830060C061C063006302630A2
:101E20007630FE30DE318E1F060FC003E0037003F4
:101E300038031C03FE3FFE3F0003000000007E0C41
:101E40007E1C66386630663066306630E638C61FFF
:101E5000860FF80FFC1FEE3866306630663066304D
:101E6000E638CE1F8C0F060006000600863FC63FF0
:101E7000660036001E000E000000380FFC1FC63042
:101E8000C630C630C630C630C630FC1F380F3808E2
:101E90007C18C630C630C630C630C630C630FC1FCF
:101EA000F80F00000030003000300030003000300B
:101EB00000300030000080018001FC3FF81FF00F6F
:101EC000E007C0038001FC3FFC3FFC3FFC3F80017A
:101ED000C003E007F00FF81FFC3F80018001FE7F88
:101EE000FE7F981998199819981998199819FE7FD2
:101EF000FE7FEF93FF9305E000932B0200913402E5
:101F000000933602009135020093370200913402AB
:101F1000000F0093340200913502001F0093350238
:101F200000913402000F0093340200913502001F2B
:101F3000009335020091340210913602010F009394
:101F400034020091350210913702011F00933502CF
:101F5000E2E4F9E110913402E10F10913502F11F32
:101F6000F2DB08E70093BB00E0DB00E40093BB007A
:101F7000DCDB05910093BB00D8DB1FDB00912B025B
:101F8000015000932B0261F7DEDB08E70093BB00F2
:101F9000CCDB00E40093BB00C8DB00E00093BB0097
:101FA000C4DB0BDBFF91EF9108955F9A00E3109182
:101FB00001010117F8F15F9A03E110E00E9434007B
:101FC00002E000934201AF93BF93A2E0B1E0CFD013
:101FD000009100010D9300914201015000934201D4
:101FE000B1F7BF91AF915F9803E110E00E94340018
:101FF000489BE1CF0091020110E011BD10E012BD3D
:1020000000BDF894FA9AF99A7894F999FECF009164
:10201000030111E011BD10E012BD00BDF894FA9A61
:10202000F99A7894F999FECF0E94230203EF11E008
:102030000E9434000091010103950093010110E01A
:1020400011BD10E012BDF89A30B402E000933002E6
:1020500001E000932F020E94B10B11E011BD10E0CE
:1020600012BDF89A30B402E00093300204E000930D
:102070002F020E94B10B3090010102E00093300268
:1020800007E000932F020E94B10B0E9427010091EC
:1020900001010093020111E011BD10E012BDF89A98
:1020A00000B50093030110E011BD10E012BDF89AD5
:1020B00000B50093040112E011BD10E012BDF89AC2
:1020C00000B5009305012A9800EA0EBD0DB507FF83
:1020D000FDCFAF93BF9304E000934201A2E0B1E0D3
:1020E0000D910EBD0DB507FFFDCF009142010150CE
:1020F00000934201A9F7BF91AF912A9A03EF11E033
:102100000E9434000E945D000E9401015F9A1899AC
:10211000FECF0E94FF000E94CA000091070204FF48
:1021200008C02A9803EE0EBD0DB507FFFDCF2A9A11
:10213000EBCF0E9495002A9802EE0EBD0DB507FF69
:10214000FDCF2A9A2A9801EE0EBD0DB507FFFDCFEF
:102150002A9A00910101033308F427CF00E300938A
:10216000010103EF11E00E9434005F98089500918F
:102170000001000F009300013BF02DF000910001E1
:102180000395009300010895CDF3FDCF0FEF0DBF30
:1021900008E00EBFE0E0F1E000E00193E03019E07C
:1021A000F107D1F7EEE1FF27EA9500E00083E1F7C0
:1021B0000E9450000EEB0AB9589A00E30093010107
:1021C00007D878940E9487020E94FF0300911F02A3
:1021D00000FFFCCF00911F020E7F00931F020091B1
:1021E0007B00087F00937B000EE000937C0006E0FC
:1021F00000937A002A9802EE0EBD0DB507FFFDCFC1
:102200002A9A2A9801EE0EBD0DB507FFFDCF2A9A36
:102210000E945D000E941D01489B90C11899FCCF4F
:102220005F9A03EF11E001501040E9F70000000051
:1022300000002A9807E00EBD0DB507FFFDCFAF9354
:10224000BF9301E000934201A2E2B1E00FEF0EBDA7
:102250000DB507FFFDCF0EB50D9300914201015062
:102260000093420199F7BF91AF912A9A0091220100
:1022700000930702009122010E7000932201009149
:10228000220106950093220100912201009343014F
:1022900005E010914301011708F454C00091430177
:1022A000000F0093430100914301000F009343018D
:1022B00000914301000F0093430100914301000F7F
:1022C0000093430100914301000F009343012A98BA
:1022D00001E60EBD0DB507FFFDCFAF93BF9301E043
:1022E00000934201A2E2B1E00FEF0EBD0DB507FF72
:1022F000FDCF0EB50D9300914201015000934201B4
:1023000099F7BF91AF912A9A0091220100930B0295
:10231000AF93BF93CF93DF9301E000934201A2E21A
:10232000B1E0C0914301D0E0CB5BDE4F0D9109934A
:1023300000914201015000934201C1F7DF91CF911A
:10234000BF91AF915F982A9801EE0EBD0DB507FFC2
:10235000FDCF2A9A2A9802EE0EBD0DB507FFFDCFDC
:102360002A9A0E94CA002A9807E10EBD0DB507FF00
:10237000FDCFAF93BF9301E000934201A2E2B1E031
:102380000FEF0EBD0DB507FFFDCF0EB50D930091FC
:10239000420101500093420199F7BF91AF912A9AEF
:1023A0000091220100930A022A9805E00EBD0DB5A6
:1023B00007FFFDCFAF93BF9301E000934201A2E27C
:1023C000B1E00FEF0EBD0DB507FFFDCF0EB50D93BC
:1023D0000091420101500093420199F7BF91AF91E2
:1023E0002A9A0091220100930502009107020093AE
:1023F000330201E00093300200932F020E94F20AA0
:1024000000910A020093330201E0009330020AE0D7
:1024100000932F020E94F20A12E011BD10E012BDDB
:10242000F89A00B50093310200E00093320203E015
:1024300000932D0201E00093300203E100932F028C
:102440000E947D0B10E011BD10E012BDF89A30B46F
:1024500002E00093300201E000932F020E94B10BD2
:1024600011E011BD10E012BDF89A30B402E0009303
:10247000300204E000932F020E94B10B3090010162
:1024800002E00093300207E000932F020E94B10B9C
:10249000AF93BF93A5E6B1E001E000932D0208E001
:1024A0000093300202E000932F020E94BC06BF910D
:1024B000AF91AF93BF93A5E8B1E001E000932D0287
:1024C00008E00093300206E000932F020E94BC0651
:1024D000BF91AF91AF93BF93A5EAB1E001E0009344
:1024E0002D0208E0009330020AE000932F020E94C0
:1024F000BC06BF91AF91AF93BF93A5ECB1E001E0F3
:1025000000932D0208E0009330020EE000932F02AA
:102510000E94BC06BF91AF91AF93BF93A5EEB1E00F
:1025200001E000932D0208E00093300202E10093E5
:102530002F020E94BC06BF91AF9146CE09EF10E07A
:0E2540000E943400489B31DD0E9487023DCE90
:00000001FF
