:1000000094C31895189518951895189513C01895B8
:100010001895189518951895189518951895189578
:1000200018951895189518951895ADC318951895A5
:10003000189518950F931F930FB70F9300916000B9
:100040000064009360000F910FBF1F910F911895EE
:10005000299839D42A9801E20EBD0DB507FFFDCFCE
:100060000FE30EBD0DB507FFFDCF2A9A2A9802E2D5
:100070000EBD0DB507FFFDCF0FE30EBD0DB507FF9C
:10008000FDCF2A9A2A9803E20EBD0DB507FFFDCFDA
:1000900001E00EBD0DB507FFFDCF2A9A2A9804E2B4
:1000A0000EBD0DB507FFFDCF03E00EBD0DB507FF7B
:1000B000FDCF2A9A2A9805E20EBD0DB507FFFDCFA8
:1000C00004E60EBD0DB507FFFDCF2A9A2A9806E279
:1000D0000EBD0DB507FFFDCF06E00EBD0DB507FF48
:1000E000FDCF2A9A2A9801E30EBD0DB507FFFDCF7B
:1000F00004E00EBD0DB507FFFDCF2A9A2A9802E352
:100100000EBD0DB507FFFDCF04E00EBD0DB507FF19
:10011000FDCF2A9A2A9803E30EBD0DB507FFFDCF48
:1001200004E00EBD0DB507FFFDCF2A9A2A9804E31F
:100130000EBD0DB507FFFDCF04E00EBD0DB507FFE9
:10014000FDCF2A9A2A9805E30EBD0DB507FFFDCF16
:1001500004E00EBD0DB507FFFDCF2A9A2A9806E3ED
:100160000EBD0DB507FFFDCF04E00EBD0DB507FFB9
:10017000FDCF2A9A2A980CE30EBD0DB507FFFDCFDF
:100180000FE30EBD0DB507FFFDCF2A9A2A980DE3A8
:100190000EBD0DB507FFFDCF06E00EBD0DB507FF87
:1001A000FDCF2A9A2A9800E20EBD0DB507FFFDCFBC
:1001B00009E00EBD0DB507FFFDCF2A9A09E40093B3
:1001C0000A010FE400930B0103E500930C012A9848
:1001D0000BE20EBD0DB507FFFDCFAF93BF9303E05C
:1001E000202EAAE0B1E00D910EBD0DB507FFFDCFA9
:1001F0002A94C9F7BF91AF912A9A2A980CE20EBDB2
:100200000DB507FFFDCF02E30EBD0DB507FFFDCF16
:100210002A9A2A980DE20EBD0DB507FFFDCF03E324
:100220000EBD0DB507FFFDCF2A9A2A980EE20EBD2E
:100230000DB507FFFDCF04E30EBD0DB507FFFDCFE4
:100240002A9A2A980FE20EBD0DB507FFFDCF05E3F0
:100250000EBD0DB507FFFDCF2A9A65D32A9802EE91
:100260000EBD0DB507FFFDCF2A9A2A9801EE0EBDEF
:100270000DB507FFFDCF2A9AF3D2A1D3089529988F
:1002800022D32A9801E20EBD0DB507FFFDCF01E094
:100290000EBD0DB507FFFDCF2A9A2A9802E20EBDCA
:1002A0000DB507FFFDCF01E00EBD0DB507FFFDCF7A
:1002B0002A9A2A9803E20EBD0DB507FFFDCF01E093
:1002C0000EBD0DB507FFFDCF2A9A2A9804E20EBD98
:1002D0000DB507FFFDCF03E00EBD0DB507FFFDCF48
:1002E0002A9A2A9805E20EBD0DB507FFFDCF13E04F
:1002F00011BDF89A00B50EBD0DB507FFFDCF2A9AC6
:100300002A9806E20EBD0DB507FFFDCF06E00EBD33
:100310000DB507FFFDCF2A9A2A9800E20EBD0DB554
:1003200007FFFDCF08E00EBD0DB507FFFDCF2A9AF0
:1003300012E011BDF89A00B500930A0111E011BD59
:10034000F89A00B500930B0110E011BDF89A00B5C2
:1003500000930C012A980AE20EBD0DB507FFFDCFF0
:10036000AF93BF9303E0202EAAE0B1E00D910EBD44
:100370000DB507FFFDCF2A94C9F7BF91AF912A9A17
:1003800012E011BDF89A00B500930A0111E011BD09
:10039000F89A00B500930B0110E011BDF89A00B572
:1003A00000930C012A9800E30EBD0DB507FFFDCFA9
:1003B000AF93BF9303E0202EAAE0B1E00D910EBDF4
:1003C0000DB507FFFDCF2A94C9F7BF91AF912A9AC7
:1003D0002A9801E30EBD0DB507FFFDCFAF93BF9384
:1003E00002E0202EAAE0B1E00D910EBD0DB507FF91
:1003F000FDCF2A94C9F7BF91AF912A9A2A9802E3B8
:100400000EBD0DB507FFFDCFAF93BF9302E0202EC9
:10041000AAE0B1E00D910EBD0DB507FFFDCF2A9406
:10042000C9F7BF91AF912A9A2A980CE30EBD0DB57A
:1004300007FFFDCF03E00EBD0DB507FFFDCF2A9AE4
:100440002A980DE30EBD0DB507FFFDCF06E00EBDEA
:100450000DB507FFFDCF2A9A66D22A9802EE0EBD8F
:100460000DB507FFFDCF2A9A2A9801EE0EBD0DB5F6
:1004700007FFFDCF2A9A0895EBDD5F9A0FEF0093F7
:10048000010100930201009101010150009301015B
:10049000009102010040009302010091010100302F
:1004A00000910201004009F4BDC01899ECCF5F989B
:1004B00009EF10E001501040E9F7000000000000D3
:1004C00032D201D22A9807E00EBD0DB507FFFDCF4D
:1004D000AF93BF9301E0202EAAE2B1E00FEF0EBD73
:1004E0000DB507FFFDCF0EB50D932A94B9F7BF9157
:1004F000AF912A9A00912A010093050100912A01E7
:100500000E7000932A0100912A01069500932A019A
:1005100000912A0100934A0105E010914A01011758
:1005200008F44AC000914A01000F00934A0100916B
:100530004A01000F00934A0100914A01000F009305
:100540004A0100914A01000F00934A0100914A01BB
:10055000000F00934A012A9801E60EBD0DB507FF72
:10056000FDCFAF93BF9304E0202EAAE2B1E00FEFDE
:100570000EBD0DB507FFFDCF0EB50D932A94B9F74B
:10058000BF91AF912A9A00912A0100930901AF937C
:10059000BF93CF93DF9304E0202EAAE2B1E0C09195
:1005A0004A01D0E0C55BDE4F0D9109932A94E1F733
:1005B000DF91CF91BF91AF912A9802EE0EBD0DB59C
:1005C00007FFFDCF2A9A00912A01F999FECF12E088
:1005D00011BD00BDF894FA9AF99A789400912B0114
:1005E000F999FECF11E011BD00BDF894FA9AF99A7D
:1005F000789400912C01F999FECF10E011BD00BD57
:10060000F894FA9AF99A789400912D01F999FECF0D
:1006100013E011BD00BDF894FA9AF99A789409EFA5
:1006200010E0EFD15F98089527DF29DE5E9A0FE38F
:1006300000937E0000917B00087F00937B000EE614
:1006400000937C000DED00937A0002E0F02AF0FEAA
:10065000FECF00E0F02E0FE300937E0000917B00C0
:10066000087F00937B000EE400937C0005E000937C
:100670007A000FE300937E0000917B00087F0093D7
:100680007B0000EE00937C000DED00937A0004E007
:10069000F02AF0FEFECF00E0F02E0FE300937E0084
:1006A00000917B00087F00937B0000E400937C00B6
:1006B00005E000937A005E9802E0202E8AD12A9805
:1006C00000EA0EBD0DB507FFFDCFAF93BF9302E06B
:1006D000202EAAE0B1E00D910EBD0DB507FFFDCFB4
:1006E0002A94C9F7BF91AF912A9ABAD04CD15F9A98
:1006F0001899FECF18D10091050104FF08C02A986F
:1007000003EE0EBD0DB507FFFDCF2A9AEFCF5F9820
:10071000DAD02A9801EE0EBD0DB507FFFDCF2A9A5B
:10072000A89505E003BF889581CF0FEF0DBF02E0CC
:100730000EBFE0E0F1E000E00193E03013E0F107EC
:10074000D1F7EEE1FF27EA9500E00083E1F70091A1
:10075000600008610093600009EE00936000229A37
:10076000259A239A0DB50E7F01600DBD00E50CBDE5
:100770002A9A5A9A0EEE04B9569A579A03EF11E044
:1007800040D1789451DF0F931F930FB70F93F1FC73
:1007900009D0F2FC29D001E0F02A0F910FBF1F9180
:1007A0000F9118953F9245EF5AE06091790070E003
:1007B00020E030E0889400E1302E441F551F221FB6
:1007C000331F261B370B20F4260F371F889401C0D8
:1007D0000894441F551F3A9491F7842F952FA0E059
:1007E000B0E03F90482E08954091790050E064EBCE
:1007F00070E080E090E0A0E0B0E03F9200E1302EB9
:10080000880F991FAA1FBB1F660F771F28F4840F3C
:10081000951F10E0A11FB11F3A9491F73F903F92AE
:10082000482F592F66EF79E020E030E0889400E10E
:10083000302E441F551F221F331F261B370B20F459
:10084000260F371F889401C00894441F551F3A94FF
:1008500091F7842F952FA0E0B0E03F90582E089597
:1008600029982A9800E00EBD0DB507FFFDCFAF9384
:10087000BF9301E0202EAAE2B1E00FEF0EBD0DB54F
:1008800007FFFDCF0EB50D932A94B9F7BF91AF9135
:100890002A9A00912A010093040100910401026048
:1008A000009304012A9800E20EBD0DB507FFFDCFAD
:1008B000009104010EBD0DB507FFFDCF2A9A01E09E
:1008C00010E09FD0089529982A9800E00EBD0DB53C
:1008D00007FFFDCFAF93BF9301E0202EAAE2B1E066
:1008E0000FEF0EBD0DB507FFFDCF0EB50D932A948A
:1008F000B9F7BF91AF912A9A00912A0100930401A0
:10090000009104010D7F009304012A9800E20EBDBE
:100910000DB507FFFDCF009104010EBD0DB507FF1A
:10092000FDCF2A9A089529982A9807E00EBD0DB5A3
:1009300007FFFDCFAF93BF9301E0202EAAE2B1E005
:100940000FEF0EBD0DB507FFFDCF0EB50D932A9429
:10095000B9F7BF91AF912A9A00912A01009305013E
:1009600000912A01007700932A012A9807E20EBD20
:100970000DB507FFFDCF00912A010EBD0DB507FF94
:10098000FDCF2A9A0895299804E010E00150104004
:10099000E9F7000000000000299A0EE010E0015085
:1009A0001040E9F7000000000000299805E910E078
:1009B00001501040E9F70000000000000895299A56
:1009C00005E910E001501040E9F7000000000000C8
:1009D0000895AF93BF93AAE0B1E000910001000F2A
:1009E0000093000153F12DF0009100010395009355
:1009F0000001009100010D932A9479F7BF91AF9106
:100A000008950F931F9303EE13E001501040E9F790
:100A1000000000001F910F910F931F9304EE13E04D
:100A200001501040E9F70000000000001F910F91F5
:0E0A30000150104089F700000895B5F2DACFAA
:00000001FF
